:100000000C942A000C9449000C947F000C949300EB
:100010000C9447000C9447000C9447000C94470044
:100020000C9447000C9447000C9447000C94470034
:100030000C9447000C9447000C9447000C94470024
:100040000C9447000C9447000C9447000C94470014
:100050000C94470011241FBECFE5D8E0DEBFCDBF12
:1000600010E0A0E6B0E0EAE6F2E002C005900D92F2
:10007000A236B107D9F720E0A2E6B0E001C01D9298
:10008000A536B207E1F70E94CA000C9433010C9424
:1000900000001F920F920FB60F9211242F933F93DF
:1000A0008F939F9310926200809162008530F0F4EC
:1000B0009FEF9BBB2FEF34E38CE02150304080401A
:1000C000E1F700C000001BBA2FEF34E38CE02150B1
:1000D00030408040E1F700C00000809162008F5FF7
:1000E0008093620080916200853018F39F918F9118
:1000F0003F912F910F900FBE0F901F9018951F9258
:100100000F920FB60F9211248F939F9390916000DE
:1001100081E08927809360009F918F910F900FBE9F
:100120000F901F9018951F920F920FB60F921124E7
:100130008F9385B38F5F85BB85B3803109F415BA82
:100140008F910F900FBE0F901F901895F894789490
:100150000895F8948BB780648BBF85B7816085BFA5
:1001600085B7826085BF78940895F8948BB78068CE
:100170008BBF85B7846085BF85B7886085BF78945D
:100180000895F8948BB780628BBF84B7806484BF76
:10019000789408958FEF8ABB8FE084BB8A98929AF7
:1001A0008B98939ABA98C29A0E94A6000E94A900BE
:1001B0000E94B5000E94C10021E030E041E0809142
:1001C0006300883030F580916000813011F58091B6
:1001D0006300B90102C0660F771F8A95E2F760934A
:1001E0006400809164008BBB7FEF81EE94E07150DE
:1001F00080409040E1F700C00000809163008F5F75
:1002000080936300809163008730C9F6109260008C
:10021000D6CF80916300882391F280916000811194
:10022000CECF80916300B90102C0660F771F8A9517
:10023000E2F760936400809164008BBB7FEF81EEF6
:1002400094E0715080409040E1F700C00000809140
:100250006300815080936300809163008111AFCF70
:0A02600040936000ACCFF894FFCF8C
:02026A00010091
:00000001FF
