:100000000C9432000C9444000C9444000C94440072
:100010000C9444000C9444000C9444000C94440050
:100020000C9444000C9444000C9455000C9446002D
:100030000C9444000C9444000C9444000C94440030
:100040000C9444000C9444000C9444000C94440020
:100050000C944400FF00090113011D012701310127
:100060003B01450111241FBECFE5D8E0DEBFCDBF67
:1000700020E0A0E6B0E001C01D92A636B207E1F78D
:100080000E946A010C9473010C9400001F920F925D
:100090000FB60F9211248F938091650082BF8F91CC
:1000A0000F900FBE0F901F9018951F920F920FB6D2
:1000B0000F9211240F900FBE0F901F9018958FEF85
:1000C00087BB8ABBBA98C29A81E08093600083E0C4
:1000D0008093610082E08093620085E080936300FA
:1000E00086E68093640083E680936500409160001B
:1000F0005091610060916200709163008091640092
:10010000909165000E948C0078940E94F300B2994F
:10011000FECF0E944F01FBCFCF93DF9300D000D0E2
:1001200000D0CDB7DEB749835A836B837C838D8340
:100130009E83513069F028F0523089F05330B1F08D
:100140001BC083B78F7B83BF83B7877F83BF14C0F8
:1001500083B7877F83BF83B7806483BF0DC083B7B6
:10016000886083BF83B78F7B83BF06C083B78860F7
:1001700083BF83B7806483BF8B81813069F028F0AF
:10018000823089F08330B1F01BC083B78F7D83BF8D
:1001900083B78F7E83BF14C083B78F7D83BF83B740
:1001A000806183BF0DC083B7806283BF83B78F7EBA
:1001B00083BF06C083B7806283BF83B7806183BF7C
:1001C00089B7826089BF89B7816089BF8E8182BF0C
:1001D0008D818CBF26960FB6F894DEBF0FBECDBFC3
:1001E000DF91CF9108958091630090E08830910570
:1001F00008F054C0FC01E65DFF4F0C946D0183B71D
:100200008B7F83BF83B78D7F83BF83B78E7F83BF91
:10021000089583B78B7F83BF83B78D7F83BF83B7F9
:10022000816083BF089583B78B7F83BF83B782606C
:1002300083BF83B78E7F83BF089583B78B7F83BFD0
:1002400083B7826083BF83B7816083BF089583B71C
:10025000846083BF83B78D7F83BF83B78E7F83BF67
:10026000089583B7846083BF83B78D7F83BF83B7CF
:10027000816083BF089583B7846083BF83B7826042
:1002800083BF83B78E7F83BF089583B7846083BFA6
:1002900083B7826083BF83B7816083BF089583B7CC
:1002A0008E7F83BF83B78D7F83BF83B78B7F83BFF1
:1002B00088B78D7F88BF88B78E7F88BF89B78D7FCD
:1002C00089BF89B78E7F89BF80B7816080BF12BE2A
:1002D0001CBE08950E945F00FFCFEE0FFF1F059028
:0A02E000F491E02D0994F894FFCF8B
:00000001FF
